{
  "contractName": "RPS",
  "abi": [
    {
      "inputs": [
        {
          "internalType": "address",
          "name": "_rpsCoinAddress",
          "type": "address"
        }
      ],
      "stateMutability": "nonpayable",
      "type": "constructor"
    },
    {
      "anonymous": false,
      "inputs": [
        {
          "indexed": false,
          "internalType": "uint256",
          "name": "gameId",
          "type": "uint256"
        },
        {
          "indexed": true,
          "internalType": "address",
          "name": "player1",
          "type": "address"
        },
        {
          "indexed": false,
          "internalType": "uint256",
          "name": "betAmount",
          "type": "uint256"
        }
      ],
      "name": "GameCreated",
      "type": "event"
    },
    {
      "anonymous": false,
      "inputs": [
        {
          "indexed": false,
          "internalType": "uint256",
          "name": "gameId",
          "type": "uint256"
        },
        {
          "indexed": true,
          "internalType": "address",
          "name": "winner",
          "type": "address"
        },
        {
          "indexed": false,
          "internalType": "uint256",
          "name": "amountWon",
          "type": "uint256"
        },
        {
          "indexed": false,
          "internalType": "string",
          "name": "result",
          "type": "string"
        }
      ],
      "name": "GameEnded",
      "type": "event"
    },
    {
      "inputs": [],
      "name": "gameIdCounter",
      "outputs": [
        {
          "internalType": "uint256",
          "name": "",
          "type": "uint256"
        }
      ],
      "stateMutability": "view",
      "type": "function",
      "constant": true
    },
    {
      "inputs": [
        {
          "internalType": "uint256",
          "name": "",
          "type": "uint256"
        }
      ],
      "name": "games",
      "outputs": [
        {
          "internalType": "address",
          "name": "player1",
          "type": "address"
        },
        {
          "internalType": "address",
          "name": "player2",
          "type": "address"
        },
        {
          "internalType": "uint256",
          "name": "betAmount",
          "type": "uint256"
        },
        {
          "internalType": "bytes32",
          "name": "hashedMove1",
          "type": "bytes32"
        },
        {
          "internalType": "enum RPS.Move",
          "name": "move2",
          "type": "uint8"
        },
        {
          "internalType": "enum RPS.Move",
          "name": "revealedMove1",
          "type": "uint8"
        },
        {
          "internalType": "enum RPS.GameState",
          "name": "state",
          "type": "uint8"
        }
      ],
      "stateMutability": "view",
      "type": "function",
      "constant": true
    },
    {
      "inputs": [],
      "name": "rpsCoin",
      "outputs": [
        {
          "internalType": "contract IERC20",
          "name": "",
          "type": "address"
        }
      ],
      "stateMutability": "view",
      "type": "function",
      "constant": true
    },
    {
      "inputs": [
        {
          "internalType": "bytes32",
          "name": "hashedMove",
          "type": "bytes32"
        },
        {
          "internalType": "uint256",
          "name": "amount",
          "type": "uint256"
        }
      ],
      "name": "createGame",
      "outputs": [],
      "stateMutability": "nonpayable",
      "type": "function"
    },
    {
      "inputs": [
        {
          "internalType": "uint256",
          "name": "gameId",
          "type": "uint256"
        },
        {
          "internalType": "enum RPS.Move",
          "name": "move",
          "type": "uint8"
        }
      ],
      "name": "joinGame",
      "outputs": [],
      "stateMutability": "nonpayable",
      "type": "function"
    },
    {
      "inputs": [
        {
          "internalType": "uint256",
          "name": "gameId",
          "type": "uint256"
        },
        {
          "internalType": "enum RPS.Move",
          "name": "move",
          "type": "uint8"
        },
        {
          "internalType": "string",
          "name": "secret",
          "type": "string"
        }
      ],
      "name": "reveal",
      "outputs": [],
      "stateMutability": "nonpayable",
      "type": "function"
    }
  ],
  "bytecode": "0x60806040523480156200001157600080fd5b5060405162001ce338038062001ce38339818101604052810190620000379190620000e8565b806000806101000a81548173ffffffffffffffffffffffffffffffffffffffff021916908373ffffffffffffffffffffffffffffffffffffffff160217905550506200011a565b600080fd5b600073ffffffffffffffffffffffffffffffffffffffff82169050919050565b6000620000b08262000083565b9050919050565b620000c281620000a3565b8114620000ce57600080fd5b50565b600081519050620000e281620000b7565b92915050565b6000602082840312156200010157620001006200007e565b5b60006200011184828501620000d1565b91505092915050565b611bb9806200012a6000396000f3fe608060405234801561001057600080fd5b50600436106100625760003560e01c8063117a5b90146100675780631bb412d61461009d578063c0b9c53c146100bb578063ca6649c5146100d7578063de39ecfa146100f3578063fc2cb9b914610111575b600080fd5b610081600480360381019061007c9190610fa1565b61012d565b60405161009497969594939291906110f6565b60405180910390f35b6100a56101d6565b6040516100b29190611165565b60405180910390f35b6100d560048036038101906100d091906111ac565b6101dc565b005b6100f160048036038101906100ec9190611211565b610511565b005b6100fb61074d565b60405161010891906112b0565b60405180910390f35b61012b60048036038101906101269190611411565b610771565b005b60026020528060005260406000206000915090508060000160009054906101000a900473ffffffffffffffffffffffffffffffffffffffff16908060010160009054906101000a900473ffffffffffffffffffffffffffffffffffffffff16908060020154908060030154908060040160009054906101000a900460ff16908060040160019054906101000a900460ff16908060040160029054906101000a900460ff16905087565b60015481565b6000811161021f576040517f08c379a0000000000000000000000000000000000000000000000000000000008152600401610216906114dd565b60405180910390fd5b60008054906101000a900473ffffffffffffffffffffffffffffffffffffffff1673ffffffffffffffffffffffffffffffffffffffff166323b872dd3330846040518463ffffffff1660e01b815260040161027c939291906114fd565b6020604051808303816000875af115801561029b573d6000803e3d6000fd5b505050506040513d601f19601f820116820180604052508101906102bf919061156c565b506000600160008154809291906102d5906115c8565b9190505590506040518060e001604052803373ffffffffffffffffffffffffffffffffffffffff168152602001600073ffffffffffffffffffffffffffffffffffffffff1681526020018381526020018481526020016000600381111561033f5761033e611037565b5b81526020016000600381111561035857610357611037565b5b81526020016000600281111561037157610370611037565b5b8152506002600083815260200190815260200160002060008201518160000160006101000a81548173ffffffffffffffffffffffffffffffffffffffff021916908373ffffffffffffffffffffffffffffffffffffffff16021790555060208201518160010160006101000a81548173ffffffffffffffffffffffffffffffffffffffff021916908373ffffffffffffffffffffffffffffffffffffffff160217905550604082015181600201556060820151816003015560808201518160040160006101000a81548160ff0219169083600381111561045457610453611037565b5b021790555060a08201518160040160016101000a81548160ff0219169083600381111561048457610483611037565b5b021790555060c08201518160040160026101000a81548160ff021916908360028111156104b4576104b3611037565b5b02179055509050503373ffffffffffffffffffffffffffffffffffffffff167f7dfb67e9ff596fca4da65c7eedb128cd1aac553af54b3c0cb733625a2480d8bd8284604051610504929190611610565b60405180910390a2505050565b60006002600084815260200190815260200160002090506000600281111561053c5761053b611037565b5b8160040160029054906101000a900460ff1660028111156105605761055f611037565b5b146105a0576040517f08c379a000000000000000000000000000000000000000000000000000000000815260040161059790611685565b60405180910390fd5b600060038111156105b4576105b3611037565b5b8260038111156105c7576105c6611037565b5b03610607576040517f08c379a00000000000000000000000000000000000000000000000000000000081526004016105fe906116f1565b60405180910390fd5b60008054906101000a900473ffffffffffffffffffffffffffffffffffffffff1673ffffffffffffffffffffffffffffffffffffffff166323b872dd333084600201546040518463ffffffff1660e01b8152600401610668939291906114fd565b6020604051808303816000875af1158015610687573d6000803e3d6000fd5b505050506040513d601f19601f820116820180604052508101906106ab919061156c565b50338160010160006101000a81548173ffffffffffffffffffffffffffffffffffffffff021916908373ffffffffffffffffffffffffffffffffffffffff160217905550818160040160006101000a81548160ff0219169083600381111561071657610715611037565b5b021790555060018160040160026101000a81548160ff0219169083600281111561074357610742611037565b5b0217905550505050565b60008054906101000a900473ffffffffffffffffffffffffffffffffffffffff1681565b60006002600085815260200190815260200160002090506001600281111561079c5761079b611037565b5b8160040160029054906101000a900460ff1660028111156107c0576107bf611037565b5b14610800576040517f08c379a00000000000000000000000000000000000000000000000000000000081526004016107f79061175d565b60405180910390fd5b8060000160009054906101000a900473ffffffffffffffffffffffffffffffffffffffff1673ffffffffffffffffffffffffffffffffffffffff163373ffffffffffffffffffffffffffffffffffffffff1614610892576040517f08c379a0000000000000000000000000000000000000000000000000000000008152600401610889906117c9565b60405180910390fd5b600083836040516020016108a7929190611899565b60405160208183030381529060405280519060200120905081600301548114610905576040517f08c379a00000000000000000000000000000000000000000000000000000000081526004016108fc9061190d565b60405180910390fd5b838260040160016101000a81548160ff0219169083600381111561092c5761092b611037565b5b021790555060028260040160026101000a81548160ff0219169083600281111561095957610958611037565b5b021790555060006109d68360040160019054906101000a900460ff168460040160009054906101000a900460ff168560000160009054906101000a900473ffffffffffffffffffffffffffffffffffffffff168660010160009054906101000a900473ffffffffffffffffffffffffffffffffffffffff16610df4565b90506000600284600201546109eb919061192d565b9050600073ffffffffffffffffffffffffffffffffffffffff168273ffffffffffffffffffffffffffffffffffffffff1614610c0a5760008054906101000a900473ffffffffffffffffffffffffffffffffffffffff1673ffffffffffffffffffffffffffffffffffffffff1663a9059cbb83836040518363ffffffff1660e01b8152600401610a7c929190611987565b6020604051808303816000875af1158015610a9b573d6000803e3d6000fd5b505050506040513d601f19601f82011682018060405250810190610abf919061156c565b508360000160009054906101000a900473ffffffffffffffffffffffffffffffffffffffff1673ffffffffffffffffffffffffffffffffffffffff168273ffffffffffffffffffffffffffffffffffffffff1603610b90578360000160009054906101000a900473ffffffffffffffffffffffffffffffffffffffff1673ffffffffffffffffffffffffffffffffffffffff167f033e3c968326a88462e410029f9206fd723118874ab262f46f256acdf9b927738883604051610b839291906119fc565b60405180910390a2610c05565b8360010160009054906101000a900473ffffffffffffffffffffffffffffffffffffffff1673ffffffffffffffffffffffffffffffffffffffff167f033e3c968326a88462e410029f9206fd723118874ab262f46f256acdf9b927738883604051610bfc929190611a84565b60405180910390a25b610deb565b60008054906101000a900473ffffffffffffffffffffffffffffffffffffffff1673ffffffffffffffffffffffffffffffffffffffff1663a9059cbb8560000160009054906101000a900473ffffffffffffffffffffffffffffffffffffffff1686600201546040518363ffffffff1660e01b8152600401610c8d929190611987565b6020604051808303816000875af1158015610cac573d6000803e3d6000fd5b505050506040513d601f19601f82011682018060405250810190610cd0919061156c565b5060008054906101000a900473ffffffffffffffffffffffffffffffffffffffff1673ffffffffffffffffffffffffffffffffffffffff1663a9059cbb8560010160009054906101000a900473ffffffffffffffffffffffffffffffffffffffff1686600201546040518363ffffffff1660e01b8152600401610d54929190611987565b6020604051808303816000875af1158015610d73573d6000803e3d6000fd5b505050506040513d601f19601f82011682018060405250810190610d97919061156c565b50600073ffffffffffffffffffffffffffffffffffffffff167f033e3c968326a88462e410029f9206fd723118874ab262f46f256acdf9b92773886000604051610de2929190611b47565b60405180910390a25b50505050505050565b6000836003811115610e0957610e08611037565b5b856003811115610e1c57610e1b611037565b5b03610e2a5760009050610f4f565b60016003811115610e3e57610e3d611037565b5b856003811115610e5157610e50611037565b5b148015610e815750600380811115610e6c57610e6b611037565b5b846003811115610e7f57610e7e611037565b5b145b80610ee0575060026003811115610e9b57610e9a611037565b5b856003811115610eae57610ead611037565b5b148015610edf575060016003811115610eca57610ec9611037565b5b846003811115610edd57610edc611037565b5b145b5b80610f3e5750600380811115610ef957610ef8611037565b5b856003811115610f0c57610f0b611037565b5b148015610f3d575060026003811115610f2857610f27611037565b5b846003811115610f3b57610f3a611037565b5b145b5b15610f4b57829050610f4f565b8190505b949350505050565b6000604051905090565b600080fd5b600080fd5b6000819050919050565b610f7e81610f6b565b8114610f8957600080fd5b50565b600081359050610f9b81610f75565b92915050565b600060208284031215610fb757610fb6610f61565b5b6000610fc584828501610f8c565b91505092915050565b600073ffffffffffffffffffffffffffffffffffffffff82169050919050565b6000610ff982610fce565b9050919050565b61100981610fee565b82525050565b61101881610f6b565b82525050565b6000819050919050565b6110318161101e565b82525050565b7f4e487b7100000000000000000000000000000000000000000000000000000000600052602160045260246000fd5b6004811061107757611076611037565b5b50565b600081905061108882611066565b919050565b60006110988261107a565b9050919050565b6110a88161108d565b82525050565b600381106110bf576110be611037565b5b50565b60008190506110d0826110ae565b919050565b60006110e0826110c2565b9050919050565b6110f0816110d5565b82525050565b600060e08201905061110b600083018a611000565b6111186020830189611000565b611125604083018861100f565b6111326060830187611028565b61113f608083018661109f565b61114c60a083018561109f565b61115960c08301846110e7565b98975050505050505050565b600060208201905061117a600083018461100f565b92915050565b6111898161101e565b811461119457600080fd5b50565b6000813590506111a681611180565b92915050565b600080604083850312156111c3576111c2610f61565b5b60006111d185828601611197565b92505060206111e285828601610f8c565b9150509250929050565b600481106111f957600080fd5b50565b60008135905061120b816111ec565b92915050565b6000806040838503121561122857611227610f61565b5b600061123685828601610f8c565b9250506020611247858286016111fc565b9150509250929050565b6000819050919050565b600061127661127161126c84610fce565b611251565b610fce565b9050919050565b60006112888261125b565b9050919050565b600061129a8261127d565b9050919050565b6112aa8161128f565b82525050565b60006020820190506112c560008301846112a1565b92915050565b600080fd5b600080fd5b6000601f19601f8301169050919050565b7f4e487b7100000000000000000000000000000000000000000000000000000000600052604160045260246000fd5b61131e826112d5565b810181811067ffffffffffffffff8211171561133d5761133c6112e6565b5b80604052505050565b6000611350610f57565b905061135c8282611315565b919050565b600067ffffffffffffffff82111561137c5761137b6112e6565b5b611385826112d5565b9050602081019050919050565b82818337600083830152505050565b60006113b46113af84611361565b611346565b9050828152602081018484840111156113d0576113cf6112d0565b5b6113db848285611392565b509392505050565b600082601f8301126113f8576113f76112cb565b5b81356114088482602086016113a1565b91505092915050565b60008060006060848603121561142a57611429610f61565b5b600061143886828701610f8c565b9350506020611449868287016111fc565b925050604084013567ffffffffffffffff81111561146a57611469610f66565b5b611476868287016113e3565b9150509250925092565b600082825260208201905092915050565b7f426574206d7573742062652067726561746572207468616e2030000000000000600082015250565b60006114c7601a83611480565b91506114d282611491565b602082019050919050565b600060208201905081810360008301526114f6816114ba565b9050919050565b60006060820190506115126000830186611000565b61151f6020830185611000565b61152c604083018461100f565b949350505050565b60008115159050919050565b61154981611534565b811461155457600080fd5b50565b60008151905061156681611540565b92915050565b60006020828403121561158257611581610f61565b5b600061159084828501611557565b91505092915050565b7f4e487b7100000000000000000000000000000000000000000000000000000000600052601160045260246000fd5b60006115d382610f6b565b91507fffffffffffffffffffffffffffffffffffffffffffffffffffffffffffffffff820361160557611604611599565b5b600182019050919050565b6000604082019050611625600083018561100f565b611632602083018461100f565b9392505050565b7f47616d65206e6f74206a6f696e61626c65000000000000000000000000000000600082015250565b600061166f601183611480565b915061167a82611639565b602082019050919050565b6000602082019050818103600083015261169e81611662565b9050919050565b7f496e76616c6964206d6f76650000000000000000000000000000000000000000600082015250565b60006116db600c83611480565b91506116e6826116a5565b602082019050919050565b6000602082019050818103600083015261170a816116ce565b9050919050565b7f43616e6e6f742072657665616c20796574000000000000000000000000000000600082015250565b6000611747601183611480565b915061175282611711565b602082019050919050565b600060208201905081810360008301526117768161173a565b9050919050565b7f4f6e6c7920706c61796572312063616e2072657665616c000000000000000000600082015250565b60006117b3601783611480565b91506117be8261177d565b602082019050919050565b600060208201905081810360008301526117e2816117a6565b9050919050565b60008160f81b9050919050565b6000611801826117e9565b9050919050565b6118196118148261108d565b6117f6565b82525050565b600081519050919050565b600081905092915050565b60005b83811015611853578082015181840152602081019050611838565b83811115611862576000848401525b50505050565b60006118738261181f565b61187d818561182a565b935061188d818560208601611835565b80840191505092915050565b60006118a58285611808565b6001820191506118b58284611868565b91508190509392505050565b7f4d6f76652b736563726574206d69736d61746368000000000000000000000000600082015250565b60006118f7601483611480565b9150611902826118c1565b602082019050919050565b60006020820190508181036000830152611926816118ea565b9050919050565b600061193882610f6b565b915061194383610f6b565b9250817fffffffffffffffffffffffffffffffffffffffffffffffffffffffffffffffff048311821515161561197c5761197b611599565b5b828202905092915050565b600060408201905061199c6000830185611000565b6119a9602083018461100f565b9392505050565b7f506c6179657220312077696e7321000000000000000000000000000000000000600082015250565b60006119e6600e83611480565b91506119f1826119b0565b602082019050919050565b6000606082019050611a11600083018561100f565b611a1e602083018461100f565b8181036040830152611a2f816119d9565b90509392505050565b7f506c6179657220322077696e7321000000000000000000000000000000000000600082015250565b6000611a6e600e83611480565b9150611a7982611a38565b602082019050919050565b6000606082019050611a99600083018561100f565b611aa6602083018461100f565b8181036040830152611ab781611a61565b90509392505050565b6000819050919050565b6000611ae5611ae0611adb84611ac0565b611251565b610f6b565b9050919050565b611af581611aca565b82525050565b7f447261772120426f746820706c617965727320726566756e6465642e00000000600082015250565b6000611b31601c83611480565b9150611b3c82611afb565b602082019050919050565b6000606082019050611b5c600083018561100f565b611b696020830184611aec565b8181036040830152611b7a81611b24565b9050939250505056fea2646970667358221220fe58eb4ec21e0c4c2c65aab4a41d555cfa806555e6a03a40b215bc293c1ae3c564736f6c634300080d0033",
  "immutableReferences": {},
  "source": "// SPDX-License-Identifier: MIT\npragma solidity ^0.8.0;\n\nimport \"@openzeppelin/contracts/token/ERC20/IERC20.sol\";\n\ncontract RPS {\n    enum Move { None, Rock, Paper, Scissors }\n    enum GameState { WaitingForPlayer, MoveSubmitted, Revealed }\n\n    struct Game {\n        address player1;\n        address player2;\n        uint256 betAmount;\n        bytes32 hashedMove1;\n        Move move2;\n        Move revealedMove1;\n        GameState state;\n    }\n\n    IERC20 public rpsCoin;\n    uint256 public gameIdCounter;\n    mapping(uint256 => Game) public games;\n\n    event GameCreated(uint256 gameId, address indexed player1, uint256 betAmount);\n    event GameEnded(uint256 gameId, address indexed winner, uint256 amountWon, string result);\n\n    constructor(address _rpsCoinAddress) {\n        rpsCoin = IERC20(_rpsCoinAddress);\n    }\n\n    // Player 1 creates a game and commits to a move (hash = keccak256(abi.encodePacked(move, secret)))\n    function createGame(bytes32 hashedMove, uint256 amount) external {\n        require(amount > 0, \"Bet must be greater than 0\");\n\n        // Transfer RPSCoin to contract\n        rpsCoin.transferFrom(msg.sender, address(this), amount);\n\n        uint256 gameId = gameIdCounter++;\n        games[gameId] = Game({\n            player1: msg.sender,\n            player2: address(0),\n            betAmount: amount,\n            hashedMove1: hashedMove,\n            move2: Move.None,\n            revealedMove1: Move.None,\n            state: GameState.WaitingForPlayer\n        });\n\n        emit GameCreated(gameId, msg.sender, amount); // Emit the event\n    }\n\n    // Player 2 joins and plays move\n    function joinGame(uint256 gameId, Move move) external {\n        Game storage game = games[gameId];\n        require(game.state == GameState.WaitingForPlayer, \"Game not joinable\");\n        require(move != Move.None, \"Invalid move\");\n\n        // Transfer matching bet to contract\n        rpsCoin.transferFrom(msg.sender, address(this), game.betAmount);\n\n        game.player2 = msg.sender;\n        game.move2 = move;\n        game.state = GameState.MoveSubmitted;\n    }\n\n    // Player 1 reveals their move and secret\n    function reveal(uint256 gameId, Move move, string memory secret) external {\n        Game storage game = games[gameId];\n        require(game.state == GameState.MoveSubmitted, \"Cannot reveal yet\");\n        require(msg.sender == game.player1, \"Only player1 can reveal\");\n\n        // Verify commitment\n        bytes32 hash = keccak256(abi.encodePacked(move, secret));\n        require(hash == game.hashedMove1, \"Move+secret mismatch\");\n\n        game.revealedMove1 = move;\n        game.state = GameState.Revealed;\n\n        address winner = determineWinner(game.revealedMove1, game.move2, game.player1, game.player2);\n        uint256 totalPot = game.betAmount * 2;\n\n        // Pay winner\n        if (winner != address(0)) {\n            rpsCoin.transfer(winner, totalPot);\n            if (winner == game.player1) {\n                emit GameEnded(gameId, game.player1, totalPot, \"Player 1 wins!\");\n            } else {\n                emit GameEnded(gameId, game.player2, totalPot, \"Player 2 wins!\");\n            }\n        } else {\n            // Draw: refund both\n            rpsCoin.transfer(game.player1, game.betAmount);\n            rpsCoin.transfer(game.player2, game.betAmount);\n            emit GameEnded(gameId, address(0), 0, \"Draw! Both players refunded.\");\n        }\n\n    }\n\n    function determineWinner(Move move1, Move move2, address player1, address player2) internal pure returns (address) {\n        if (move1 == move2) return address(0); // draw\n\n        if (\n            (move1 == Move.Rock && move2 == Move.Scissors) ||\n            (move1 == Move.Paper && move2 == Move.Rock) ||\n            (move1 == Move.Scissors && move2 == Move.Paper)\n        ) {\n            return player1;\n        } else {\n            return player2;\n        }\n    }\n}\n",
  "sourcePath": "/Users/rakko/UserDocuments/Projects/web3-rockpaperscissors/backend/contracts/RPS.sol",
  "compiler": {
    "name": "solc",
    "version": "0.8.13+commit.abaa5c0e.Emscripten.clang"
  },
  "schemaVersion": "3.4.16",
  "updatedAt": "2025-04-09T03:09:20.643Z",
  "networkType": "ethereum",
  "devdoc": {
    "kind": "dev",
    "methods": {},
    "version": 1
  },
  "userdoc": {
    "kind": "user",
    "methods": {},
    "version": 1
  }
}