{
  "contractName": "RPS",
  "abi": [
    {
      "inputs": [
        {
          "internalType": "address",
          "name": "_rpsCoinAddress",
          "type": "address"
        }
      ],
      "stateMutability": "nonpayable",
      "type": "constructor"
    },
    {
      "anonymous": false,
      "inputs": [
        {
          "indexed": false,
          "internalType": "uint256",
          "name": "gameId",
          "type": "uint256"
        },
        {
          "indexed": true,
          "internalType": "address",
          "name": "player1",
          "type": "address"
        },
        {
          "indexed": false,
          "internalType": "uint256",
          "name": "betAmount",
          "type": "uint256"
        }
      ],
      "name": "GameCreated",
      "type": "event"
    },
    {
      "anonymous": false,
      "inputs": [
        {
          "indexed": false,
          "internalType": "uint256",
          "name": "gameId",
          "type": "uint256"
        },
        {
          "indexed": true,
          "internalType": "address",
          "name": "winner",
          "type": "address"
        },
        {
          "indexed": false,
          "internalType": "uint256",
          "name": "amountWon",
          "type": "uint256"
        },
        {
          "indexed": false,
          "internalType": "string",
          "name": "result",
          "type": "string"
        }
      ],
      "name": "GameEnded",
      "type": "event"
    },
    {
      "inputs": [],
      "name": "gameIdCounter",
      "outputs": [
        {
          "internalType": "uint256",
          "name": "",
          "type": "uint256"
        }
      ],
      "stateMutability": "view",
      "type": "function",
      "constant": true
    },
    {
      "inputs": [
        {
          "internalType": "uint256",
          "name": "",
          "type": "uint256"
        }
      ],
      "name": "games",
      "outputs": [
        {
          "internalType": "address",
          "name": "player1",
          "type": "address"
        },
        {
          "internalType": "address",
          "name": "player2",
          "type": "address"
        },
        {
          "internalType": "uint256",
          "name": "betAmount",
          "type": "uint256"
        },
        {
          "internalType": "bytes32",
          "name": "hashedMove1",
          "type": "bytes32"
        },
        {
          "internalType": "enum RPS.Move",
          "name": "move2",
          "type": "uint8"
        },
        {
          "internalType": "enum RPS.Move",
          "name": "revealedMove1",
          "type": "uint8"
        },
        {
          "internalType": "enum RPS.GameState",
          "name": "state",
          "type": "uint8"
        }
      ],
      "stateMutability": "view",
      "type": "function",
      "constant": true
    },
    {
      "inputs": [],
      "name": "rpsCoin",
      "outputs": [
        {
          "internalType": "contract IERC20",
          "name": "",
          "type": "address"
        }
      ],
      "stateMutability": "view",
      "type": "function",
      "constant": true
    },
    {
      "inputs": [
        {
          "internalType": "uint256",
          "name": "amount",
          "type": "uint256"
        },
        {
          "internalType": "address",
          "name": "opponentAccount",
          "type": "address"
        },
        {
          "internalType": "uint8",
          "name": "choice",
          "type": "uint8"
        },
        {
          "internalType": "string",
          "name": "secret",
          "type": "string"
        },
        {
          "internalType": "bytes32",
          "name": "hashedMove",
          "type": "bytes32"
        },
        {
          "internalType": "uint8",
          "name": "opponentChoice",
          "type": "uint8"
        }
      ],
      "name": "initiateGame",
      "outputs": [
        {
          "internalType": "address",
          "name": "",
          "type": "address"
        }
      ],
      "stateMutability": "nonpayable",
      "type": "function"
    },
    {
      "inputs": [
        {
          "internalType": "bytes32",
          "name": "hashedMove",
          "type": "bytes32"
        },
        {
          "internalType": "uint256",
          "name": "amount",
          "type": "uint256"
        }
      ],
      "name": "createGame",
      "outputs": [
        {
          "internalType": "uint256",
          "name": "",
          "type": "uint256"
        }
      ],
      "stateMutability": "nonpayable",
      "type": "function"
    },
    {
      "inputs": [
        {
          "internalType": "uint256",
          "name": "gameId",
          "type": "uint256"
        },
        {
          "internalType": "enum RPS.Move",
          "name": "move",
          "type": "uint8"
        },
        {
          "internalType": "address",
          "name": "account",
          "type": "address"
        }
      ],
      "name": "joinGame",
      "outputs": [],
      "stateMutability": "nonpayable",
      "type": "function"
    },
    {
      "inputs": [
        {
          "internalType": "uint256",
          "name": "gameId",
          "type": "uint256"
        },
        {
          "internalType": "enum RPS.Move",
          "name": "move",
          "type": "uint8"
        },
        {
          "internalType": "string",
          "name": "secret",
          "type": "string"
        }
      ],
      "name": "reveal",
      "outputs": [
        {
          "internalType": "address",
          "name": "",
          "type": "address"
        }
      ],
      "stateMutability": "nonpayable",
      "type": "function"
    }
  ],
  "bytecode": "0x60806040523480156200001157600080fd5b5060405162001f5738038062001f578339818101604052810190620000379190620000e8565b806000806101000a81548173ffffffffffffffffffffffffffffffffffffffff021916908373ffffffffffffffffffffffffffffffffffffffff160217905550506200011a565b600080fd5b600073ffffffffffffffffffffffffffffffffffffffff82169050919050565b6000620000b08262000083565b9050919050565b620000c281620000a3565b8114620000ce57600080fd5b50565b600081519050620000e281620000b7565b92915050565b6000602082840312156200010157620001006200007e565b5b60006200011184828501620000d1565b91505092915050565b611e2d806200012a6000396000f3fe608060405234801561001057600080fd5b506004361061007d5760003560e01c8063439721131161005b5780634397211314610106578063c0b9c53c14610122578063de39ecfa14610152578063fc2cb9b9146101705761007d565b80630d29e43d14610082578063117a5b90146100b25780631bb412d6146100e8575b600080fd5b61009c600480360381019061009791906112ec565b6101a0565b6040516100a991906113a4565b60405180910390f35b6100cc60048036038101906100c791906113bf565b610202565b6040516100df97969594939291906114c9565b60405180910390f35b6100f06102ab565b6040516100fd9190611538565b60405180910390f35b610120600480360381019061011b9190611578565b6102b1565b005b61013c600480360381019061013791906115cb565b6104ee565b6040516101499190611538565b60405180910390f35b61015a610829565b604051610167919061166a565b60405180910390f35b61018a60048036038101906101859190611685565b61084d565b60405161019791906113a4565b60405180910390f35b6000806101ad84896104ee565b90506101cf818460ff1660038111156101c9576101c861140a565b5b896102b1565b60006101f1828860ff1660038111156101eb576101ea61140a565b5b8861084d565b905080925050509695505050505050565b60026020528060005260406000206000915090508060000160009054906101000a900473ffffffffffffffffffffffffffffffffffffffff16908060010160009054906101000a900473ffffffffffffffffffffffffffffffffffffffff16908060020154908060030154908060040160009054906101000a900460ff16908060040160019054906101000a900460ff16908060040160029054906101000a900460ff16905087565b60015481565b6000600260008581526020019081526020016000209050600060028111156102dc576102db61140a565b5b8160040160029054906101000a900460ff166002811115610300576102ff61140a565b5b14610340576040517f08c379a000000000000000000000000000000000000000000000000000000000815260040161033790611751565b60405180910390fd5b600060038111156103545761035361140a565b5b8360038111156103675761036661140a565b5b036103a7576040517f08c379a000000000000000000000000000000000000000000000000000000000815260040161039e906117bd565b60405180910390fd5b60008054906101000a900473ffffffffffffffffffffffffffffffffffffffff1673ffffffffffffffffffffffffffffffffffffffff166323b872dd833084600201546040518463ffffffff1660e01b8152600401610408939291906117dd565b6020604051808303816000875af1158015610427573d6000803e3d6000fd5b505050506040513d601f19601f8201168201806040525081019061044b919061184c565b50818160010160006101000a81548173ffffffffffffffffffffffffffffffffffffffff021916908373ffffffffffffffffffffffffffffffffffffffff160217905550828160040160006101000a81548160ff021916908360038111156104b6576104b561140a565b5b021790555060018160040160026101000a81548160ff021916908360028111156104e3576104e261140a565b5b021790555050505050565b6000808211610532576040517f08c379a0000000000000000000000000000000000000000000000000000000008152600401610529906118c5565b60405180910390fd5b60008054906101000a900473ffffffffffffffffffffffffffffffffffffffff1673ffffffffffffffffffffffffffffffffffffffff166323b872dd3330856040518463ffffffff1660e01b815260040161058f939291906117dd565b6020604051808303816000875af11580156105ae573d6000803e3d6000fd5b505050506040513d601f19601f820116820180604052508101906105d2919061184c565b506000600160008154809291906105e890611914565b9190505590506040518060e001604052803373ffffffffffffffffffffffffffffffffffffffff168152602001600073ffffffffffffffffffffffffffffffffffffffff168152602001848152602001858152602001600060038111156106525761065161140a565b5b81526020016000600381111561066b5761066a61140a565b5b8152602001600060028111156106845761068361140a565b5b8152506002600083815260200190815260200160002060008201518160000160006101000a81548173ffffffffffffffffffffffffffffffffffffffff021916908373ffffffffffffffffffffffffffffffffffffffff16021790555060208201518160010160006101000a81548173ffffffffffffffffffffffffffffffffffffffff021916908373ffffffffffffffffffffffffffffffffffffffff160217905550604082015181600201556060820151816003015560808201518160040160006101000a81548160ff021916908360038111156107675761076661140a565b5b021790555060a08201518160040160016101000a81548160ff021916908360038111156107975761079661140a565b5b021790555060c08201518160040160026101000a81548160ff021916908360028111156107c7576107c661140a565b5b02179055509050503373ffffffffffffffffffffffffffffffffffffffff167f7dfb67e9ff596fca4da65c7eedb128cd1aac553af54b3c0cb733625a2480d8bd828560405161081792919061195c565b60405180910390a28091505092915050565b60008054906101000a900473ffffffffffffffffffffffffffffffffffffffff1681565b600080600260008681526020019081526020016000209050600160028111156108795761087861140a565b5b8160040160029054906101000a900460ff16600281111561089d5761089c61140a565b5b146108dd576040517f08c379a00000000000000000000000000000000000000000000000000000000081526004016108d4906119d1565b60405180910390fd5b8060000160009054906101000a900473ffffffffffffffffffffffffffffffffffffffff1673ffffffffffffffffffffffffffffffffffffffff163373ffffffffffffffffffffffffffffffffffffffff161461096f576040517f08c379a000000000000000000000000000000000000000000000000000000000815260040161096690611a3d565b60405180910390fd5b60008484604051602001610984929190611b0d565b604051602081830303815290604052805190602001209050816003015481146109e2576040517f08c379a00000000000000000000000000000000000000000000000000000000081526004016109d990611b81565b60405180910390fd5b848260040160016101000a81548160ff02191690836003811115610a0957610a0861140a565b5b021790555060028260040160026101000a81548160ff02191690836002811115610a3657610a3561140a565b5b02179055506000610ab38360040160019054906101000a900460ff168460040160009054906101000a900460ff168560000160009054906101000a900473ffffffffffffffffffffffffffffffffffffffff168660010160009054906101000a900473ffffffffffffffffffffffffffffffffffffffff16610f2c565b9050600060028460020154610ac89190611ba1565b9050600073ffffffffffffffffffffffffffffffffffffffff168273ffffffffffffffffffffffffffffffffffffffff1614610d3c5760008054906101000a900473ffffffffffffffffffffffffffffffffffffffff1673ffffffffffffffffffffffffffffffffffffffff1663a9059cbb83836040518363ffffffff1660e01b8152600401610b59929190611bfb565b6020604051808303816000875af1158015610b78573d6000803e3d6000fd5b505050506040513d601f19601f82011682018060405250810190610b9c919061184c565b508360000160009054906101000a900473ffffffffffffffffffffffffffffffffffffffff1673ffffffffffffffffffffffffffffffffffffffff168273ffffffffffffffffffffffffffffffffffffffff1603610c98578360000160009054906101000a900473ffffffffffffffffffffffffffffffffffffffff1673ffffffffffffffffffffffffffffffffffffffff167f033e3c968326a88462e410029f9206fd723118874ab262f46f256acdf9b927738983604051610c60929190611c70565b60405180910390a28360000160009054906101000a900473ffffffffffffffffffffffffffffffffffffffff16945050505050610f25565b8360010160009054906101000a900473ffffffffffffffffffffffffffffffffffffffff1673ffffffffffffffffffffffffffffffffffffffff167f033e3c968326a88462e410029f9206fd723118874ab262f46f256acdf9b927738983604051610d04929190611cf8565b60405180910390a28360010160009054906101000a900473ffffffffffffffffffffffffffffffffffffffff16945050505050610f25565b60008054906101000a900473ffffffffffffffffffffffffffffffffffffffff1673ffffffffffffffffffffffffffffffffffffffff1663a9059cbb8560000160009054906101000a900473ffffffffffffffffffffffffffffffffffffffff1686600201546040518363ffffffff1660e01b8152600401610dbf929190611bfb565b6020604051808303816000875af1158015610dde573d6000803e3d6000fd5b505050506040513d601f19601f82011682018060405250810190610e02919061184c565b5060008054906101000a900473ffffffffffffffffffffffffffffffffffffffff1673ffffffffffffffffffffffffffffffffffffffff1663a9059cbb8560010160009054906101000a900473ffffffffffffffffffffffffffffffffffffffff1686600201546040518363ffffffff1660e01b8152600401610e86929190611bfb565b6020604051808303816000875af1158015610ea5573d6000803e3d6000fd5b505050506040513d601f19601f82011682018060405250810190610ec9919061184c565b50600073ffffffffffffffffffffffffffffffffffffffff167f033e3c968326a88462e410029f9206fd723118874ab262f46f256acdf9b92773896000604051610f14929190611dbb565b60405180910390a260009450505050505b9392505050565b6000836003811115610f4157610f4061140a565b5b856003811115610f5457610f5361140a565b5b03610f625760009050611087565b60016003811115610f7657610f7561140a565b5b856003811115610f8957610f8861140a565b5b148015610fb95750600380811115610fa457610fa361140a565b5b846003811115610fb757610fb661140a565b5b145b80611018575060026003811115610fd357610fd261140a565b5b856003811115610fe657610fe561140a565b5b1480156110175750600160038111156110025761100161140a565b5b8460038111156110155761101461140a565b5b145b5b8061107657506003808111156110315761103061140a565b5b8560038111156110445761104361140a565b5b1480156110755750600260038111156110605761105f61140a565b5b8460038111156110735761107261140a565b5b145b5b1561108357829050611087565b8190505b949350505050565b6000604051905090565b600080fd5b600080fd5b6000819050919050565b6110b6816110a3565b81146110c157600080fd5b50565b6000813590506110d3816110ad565b92915050565b600073ffffffffffffffffffffffffffffffffffffffff82169050919050565b6000611104826110d9565b9050919050565b611114816110f9565b811461111f57600080fd5b50565b6000813590506111318161110b565b92915050565b600060ff82169050919050565b61114d81611137565b811461115857600080fd5b50565b60008135905061116a81611144565b92915050565b600080fd5b600080fd5b6000601f19601f8301169050919050565b7f4e487b7100000000000000000000000000000000000000000000000000000000600052604160045260246000fd5b6111c38261117a565b810181811067ffffffffffffffff821117156111e2576111e161118b565b5b80604052505050565b60006111f561108f565b905061120182826111ba565b919050565b600067ffffffffffffffff8211156112215761122061118b565b5b61122a8261117a565b9050602081019050919050565b82818337600083830152505050565b600061125961125484611206565b6111eb565b90508281526020810184848401111561127557611274611175565b5b611280848285611237565b509392505050565b600082601f83011261129d5761129c611170565b5b81356112ad848260208601611246565b91505092915050565b6000819050919050565b6112c9816112b6565b81146112d457600080fd5b50565b6000813590506112e6816112c0565b92915050565b60008060008060008060c0878903121561130957611308611099565b5b600061131789828a016110c4565b965050602061132889828a01611122565b955050604061133989828a0161115b565b945050606087013567ffffffffffffffff81111561135a5761135961109e565b5b61136689828a01611288565b935050608061137789828a016112d7565b92505060a061138889828a0161115b565b9150509295509295509295565b61139e816110f9565b82525050565b60006020820190506113b96000830184611395565b92915050565b6000602082840312156113d5576113d4611099565b5b60006113e3848285016110c4565b91505092915050565b6113f5816110a3565b82525050565b611404816112b6565b82525050565b7f4e487b7100000000000000000000000000000000000000000000000000000000600052602160045260246000fd5b6004811061144a5761144961140a565b5b50565b600081905061145b82611439565b919050565b600061146b8261144d565b9050919050565b61147b81611460565b82525050565b600381106114925761149161140a565b5b50565b60008190506114a382611481565b919050565b60006114b382611495565b9050919050565b6114c3816114a8565b82525050565b600060e0820190506114de600083018a611395565b6114eb6020830189611395565b6114f860408301886113ec565b61150560608301876113fb565b6115126080830186611472565b61151f60a0830185611472565b61152c60c08301846114ba565b98975050505050505050565b600060208201905061154d60008301846113ec565b92915050565b6004811061156057600080fd5b50565b60008135905061157281611553565b92915050565b60008060006060848603121561159157611590611099565b5b600061159f868287016110c4565b93505060206115b086828701611563565b92505060406115c186828701611122565b9150509250925092565b600080604083850312156115e2576115e1611099565b5b60006115f0858286016112d7565b9250506020611601858286016110c4565b9150509250929050565b6000819050919050565b600061163061162b611626846110d9565b61160b565b6110d9565b9050919050565b600061164282611615565b9050919050565b600061165482611637565b9050919050565b61166481611649565b82525050565b600060208201905061167f600083018461165b565b92915050565b60008060006060848603121561169e5761169d611099565b5b60006116ac868287016110c4565b93505060206116bd86828701611563565b925050604084013567ffffffffffffffff8111156116de576116dd61109e565b5b6116ea86828701611288565b9150509250925092565b600082825260208201905092915050565b7f47616d65206e6f74206a6f696e61626c65000000000000000000000000000000600082015250565b600061173b6011836116f4565b915061174682611705565b602082019050919050565b6000602082019050818103600083015261176a8161172e565b9050919050565b7f496e76616c6964206d6f76650000000000000000000000000000000000000000600082015250565b60006117a7600c836116f4565b91506117b282611771565b602082019050919050565b600060208201905081810360008301526117d68161179a565b9050919050565b60006060820190506117f26000830186611395565b6117ff6020830185611395565b61180c60408301846113ec565b949350505050565b60008115159050919050565b61182981611814565b811461183457600080fd5b50565b60008151905061184681611820565b92915050565b60006020828403121561186257611861611099565b5b600061187084828501611837565b91505092915050565b7f426574206d7573742062652067726561746572207468616e2030000000000000600082015250565b60006118af601a836116f4565b91506118ba82611879565b602082019050919050565b600060208201905081810360008301526118de816118a2565b9050919050565b7f4e487b7100000000000000000000000000000000000000000000000000000000600052601160045260246000fd5b600061191f826110a3565b91507fffffffffffffffffffffffffffffffffffffffffffffffffffffffffffffffff8203611951576119506118e5565b5b600182019050919050565b600060408201905061197160008301856113ec565b61197e60208301846113ec565b9392505050565b7f43616e6e6f742072657665616c20796574000000000000000000000000000000600082015250565b60006119bb6011836116f4565b91506119c682611985565b602082019050919050565b600060208201905081810360008301526119ea816119ae565b9050919050565b7f4f6e6c7920706c61796572312063616e2072657665616c000000000000000000600082015250565b6000611a276017836116f4565b9150611a32826119f1565b602082019050919050565b60006020820190508181036000830152611a5681611a1a565b9050919050565b60008160f81b9050919050565b6000611a7582611a5d565b9050919050565b611a8d611a8882611460565b611a6a565b82525050565b600081519050919050565b600081905092915050565b60005b83811015611ac7578082015181840152602081019050611aac565b83811115611ad6576000848401525b50505050565b6000611ae782611a93565b611af18185611a9e565b9350611b01818560208601611aa9565b80840191505092915050565b6000611b198285611a7c565b600182019150611b298284611adc565b91508190509392505050565b7f4d6f76652b736563726574206d69736d61746368000000000000000000000000600082015250565b6000611b6b6014836116f4565b9150611b7682611b35565b602082019050919050565b60006020820190508181036000830152611b9a81611b5e565b9050919050565b6000611bac826110a3565b9150611bb7836110a3565b9250817fffffffffffffffffffffffffffffffffffffffffffffffffffffffffffffffff0483118215151615611bf057611bef6118e5565b5b828202905092915050565b6000604082019050611c106000830185611395565b611c1d60208301846113ec565b9392505050565b7f506c6179657220312077696e7321000000000000000000000000000000000000600082015250565b6000611c5a600e836116f4565b9150611c6582611c24565b602082019050919050565b6000606082019050611c8560008301856113ec565b611c9260208301846113ec565b8181036040830152611ca381611c4d565b90509392505050565b7f506c6179657220322077696e7321000000000000000000000000000000000000600082015250565b6000611ce2600e836116f4565b9150611ced82611cac565b602082019050919050565b6000606082019050611d0d60008301856113ec565b611d1a60208301846113ec565b8181036040830152611d2b81611cd5565b90509392505050565b6000819050919050565b6000611d59611d54611d4f84611d34565b61160b565b6110a3565b9050919050565b611d6981611d3e565b82525050565b7f447261772120426f746820706c617965727320726566756e6465642e00000000600082015250565b6000611da5601c836116f4565b9150611db082611d6f565b602082019050919050565b6000606082019050611dd060008301856113ec565b611ddd6020830184611d60565b8181036040830152611dee81611d98565b9050939250505056fea26469706673582212200afbe40aef410dbfa92466eea8aac67300489303f44914381c41a815bc02629264736f6c634300080d0033",
  "immutableReferences": {},
  "source": "// SPDX-License-Identifier: MIT\npragma solidity ^0.8.0;\n\nimport \"@openzeppelin/contracts/token/ERC20/IERC20.sol\";\n\ncontract RPS {\n    enum Move { None, Rock, Paper, Scissors }\n    enum GameState { WaitingForPlayer, MoveSubmitted, Revealed }\n\n    struct Game {\n        address player1;\n        address player2;\n        uint256 betAmount;\n        bytes32 hashedMove1;\n        Move move2;\n        Move revealedMove1;\n        GameState state;\n    }\n\n    IERC20 public rpsCoin;\n    uint256 public gameIdCounter;\n    mapping(uint256 => Game) public games;\n\n    event GameCreated(uint256 gameId, address indexed player1, uint256 betAmount);\n    event GameEnded(uint256 gameId, address indexed winner, uint256 amountWon, string result);\n\n    constructor(address _rpsCoinAddress) {\n        rpsCoin = IERC20(_rpsCoinAddress);\n    }\n\n    function initiateGame(\n        uint256 amount,\n        address opponentAccount,\n        uint8 choice,\n        string memory secret,\n        bytes32 hashedMove,\n        uint8 opponentChoice\n    ) external returns (address) {\n        uint256 gameId = createGame(hashedMove, amount);\n        joinGame(gameId, Move(opponentChoice), opponentAccount);\n\n        address winner = reveal(gameId, Move(choice), secret);\n        return winner;\n    }\n\n    // Player 1 creates a game and commits to a move\n    function createGame(bytes32 hashedMove, uint256 amount) public returns (uint256) {\n        require(amount > 0, \"Bet must be greater than 0\");\n\n        // Transfer RPSCoin to contract\n        rpsCoin.transferFrom(msg.sender, address(this), amount);\n\n        uint256 gameId = gameIdCounter++;\n        games[gameId] = Game({\n            player1: msg.sender,\n            player2: address(0),\n            betAmount: amount,\n            hashedMove1: hashedMove,\n            move2: Move.None,\n            revealedMove1: Move.None,\n            state: GameState.WaitingForPlayer\n        });\n\n        emit GameCreated(gameId, msg.sender, amount); // Emit the event\n        return gameId;\n    }\n\n    // Player 2 joins and plays move\n    function joinGame(uint256 gameId, Move move, address account) public {\n        Game storage game = games[gameId];\n        require(game.state == GameState.WaitingForPlayer, \"Game not joinable\");\n        require(move != Move.None, \"Invalid move\");\n\n        // Transfer matching bet to contract\n        rpsCoin.transferFrom(account, address(this), game.betAmount);\n\n        game.player2 = account;\n        game.move2 = move;\n        game.state = GameState.MoveSubmitted;\n    }\n\n    // Player 1 reveals their move and secret\n    function reveal(uint256 gameId, Move move, string memory secret) public returns (address) {\n        Game storage game = games[gameId];\n        require(game.state == GameState.MoveSubmitted, \"Cannot reveal yet\");\n        require(msg.sender == game.player1, \"Only player1 can reveal\");\n\n        // Verify commitment\n        bytes32 hash = keccak256(abi.encodePacked(move, secret));\n        require(hash == game.hashedMove1, \"Move+secret mismatch\");\n\n        game.revealedMove1 = move;\n        game.state = GameState.Revealed;\n\n        address winner = determineWinner(game.revealedMove1, game.move2, game.player1, game.player2);\n        uint256 totalPot = game.betAmount * 2;\n\n        // Pay winner\n        if (winner != address(0)) {\n            rpsCoin.transfer(winner, totalPot);\n            if (winner == game.player1) {\n                emit GameEnded(gameId, game.player1, totalPot, \"Player 1 wins!\");\n                return game.player1;\n            } else {\n                emit GameEnded(gameId, game.player2, totalPot, \"Player 2 wins!\");\n                return game.player2;\n            }\n        } else {\n            // Draw: refund both\n            rpsCoin.transfer(game.player1, game.betAmount);\n            rpsCoin.transfer(game.player2, game.betAmount);\n            emit GameEnded(gameId, address(0), 0, \"Draw! Both players refunded.\");\n            return address(0);\n        }\n    }\n\n    function determineWinner(Move move1, Move move2, address player1, address player2) internal pure returns (address) {\n        if (move1 == move2) return address(0); // draw\n\n        if (\n            (move1 == Move.Rock && move2 == Move.Scissors) ||\n            (move1 == Move.Paper && move2 == Move.Rock) ||\n            (move1 == Move.Scissors && move2 == Move.Paper)\n        ) {\n            return player1;\n        } else {\n            return player2;\n        }\n    }\n}\n",
  "sourcePath": "/Users/rakko/UserDocuments/Projects/web3-rockpaperscissors/backend/contracts/RPS.sol",
  "compiler": {
    "name": "solc",
    "version": "0.8.13+commit.abaa5c0e.Emscripten.clang"
  },
  "schemaVersion": "3.4.16",
  "updatedAt": "2025-04-10T06:31:03.668Z",
  "networkType": "ethereum",
  "devdoc": {
    "kind": "dev",
    "methods": {},
    "version": 1
  },
  "userdoc": {
    "kind": "user",
    "methods": {},
    "version": 1
  }
}